:02000004080AE8
:1000000000000A08F43F0A08000006000600050187
:080010000402BD040000000021
:10001800F42B0A0809480A4908B5884205D0094A54
:10002800824202D0121A02F079FD0748074A0021DD
:10003800121A02F07EFD064808BD00BF000300202A
:10004800643F0A0868030020680300202009002094
:100058002009002070B501F0BBFD074B074C1E4678
:10006800E41AA4080025A54204D056F8253098477C
:100078000135F8E770BD00BF143F0A085C3F0A0865
:1000880000F060B808B500F02FF8BDE8084001F0AE
:1000980061BD00F08DBF00F093BF0078B0FA80F02A
:1000A80040097047012303707047000013B50446E8
:1000B800054B0A461B7805498DF800303C2301F0B2
:1000C800D9FE204602B010BD70030020082C0A0893
:1000D80008B500F06FFD034B1860BDE8084000F05C
:1000E80047BF00BF4C080020704738B50468054674
:1000F8007CB16368013B63605BB9236820469B68F9
:100108009847A368013BA3601BB923682046DB68B6
:100118009847284638BD000010B50446034B40F800
:10012800183BFFF7E2FF204610BD00BF243C0A0839
:1001380010B50446FFF7F0FF20461C2102F093FBA0
:10014800204610BD30B500228FB0019200920123E5
:100158008C498D4800F01CFF8C490AA801F025FB4A
:100168008B4906A801F021FB06A90AA801F091FB1A
:10017800016804A8FFF79AFF05A8FFF7B6FF06A8CD
:1001880001F0CCFA0AA801F0C9FA4FF47A7001F02C
:100198007FFC02F043FB7F4902F0DAF902F03EFBF4
:1001A80002F0DAF902F092F84FF4E13102F082F845
:1001B80002F08CF8784901F0DAFB0C20012102F0FA
:1001C800E1FA764800F040FF75490AA8FFF76EFF8C
:1001D8000BA8FFF78AFF02F079F8724901F0C7FB14
:1001E80055220021704800F005FB00216E4800F000
:1001F8004AFB5528044625D002F068F86B4901F0FF
:10020800B6FB02F063F86A4905460AA801F0CDFA80
:100218000A22214606A801F0ECFA06A90AA801F06C
:1002280038FB0168284601F0A2FB06A801F076FA1F
:100238000AA801F073FA41F2883001F029FCFFF7AF
:1002480047FFC1E70AA85B49FFF730FF0BA8FFF794
:100258004CFF0DF10E0243F20A01534800F0ACFBCB
:100268000DF10F0243F20B014F4800F0A5FB9DF87A
:100278000E30562B03D19DF80F30422B26D002F0BA
:1002880025F84D4901F07DFB4C490AA801F08DFA8B
:100298009DF80F309DF80E2006A8494901F006FB8D
:1002A80006A90AA801F0F5FA016804A8FFF7FEFEFE
:1002B80005A8FFF71AFF06A801F030FA0AA801F00E
:1002C8002DFA41F2883001F0E3FBC2E701F0FEFFAE
:1002D8003C4901F056FB3C490AA801F066FA9DF832
:1002E8000F309DF80E2006A8354901F0DFFA06A95F
:1002F8000AA801F0CEFA016804A8FFF7D7FE05A8FE
:10030800FFF7F3FE06A801F009FA0AA801F006FAB9
:1003180001F0DCFF2D4901F02AFB0121224800F001
:10032800E1FA642001F0B4FB1F4800F075FB64207B
:1003380001F0AEFB022203211B4800F0A8FA64205A
:1003480001F0A6FB184800F05DFA642001F0A0FB5C
:1003580000220121144800F04DFA642001F098FBB6
:100368000021114800F002FB4FF47A7001F090FB75
:10037800002341F2AE521649164801F09BF90FB01E
:1003880030BD00BFE1030A080F2C0A08172C0A0821
:100398002F2C0A08A0860100322C0A082C080020FD
:1003A800412C0A08552C0A08740300206C2C0A08F2
:1003B800812C0A08962C0A08A42C0A08BE2C0A08C4
:1003C800D62C0A08DC2C0A08ED2C0A08FF2C0A088F
:1003D8001D2D0A08800300202DE9F0438B488BB0BF
:1003E80001F0D7F8044688B9894906A8FFF75EFEE8
:1003F80007A8FFF77AFE234641F2AE5285498348A3
:1004080001F058F910B94FF47A70FAE0824906A859
:10041800FFF74CFE07A8FFF768FE01F057FF7E497B
:1004280001F0A5FA06217D4800F0A0FA642001F049
:100438002FFB7A4800F0EAF9642001F029FB77489D
:1004480000F0E0F9642001F023FB744800F0D6F9CD
:10045800642001F01DFB00F0ADFB074600F0AAFB8D
:100468000646082241216D4800F020FA98BBFFF7A4
:100478002FFE0A2001F00CFB00F09CFB831BB3F558
:100488007A7F0446A0EB07051AD9654906A801F04A
:100498008CF90A22294602A801F0D0F902A906A877
:1004A80001F0F7F901686846FFF700FE01A8FFF7B9
:1004B8001CFE02A801F032F906A801F02FF9264621
:1004C80047F230539D42CCD906A85649FFF7EEFDB6
:1004D80007A8FFF70AFE642001F0DAFA4F4800F097
:1004E800EBF90446504906A801F05FF90A222146B3
:1004F80002A801F090F902A906A801F0CAF901685A
:100508006846FFF7D3FD01A8FFF7EFFD02A801F049
:1005180005F906A801F002F901F0D8FE424905469E
:1005280006A801F042F90A22214602A801F073F94F
:1005380002A906A801F0ADF90168284601F017FAEA
:1005480002A801F0EBF806A801F0E8F8082241211A
:10055800324800F0ABF9002845D0642001F098FA41
:1005680001F0B4FE314901F00CFA314906A8FFF751
:100578009DFD07A8FFF7B9FD2E4C284800F0FAF8B2
:1005880000231D4627462C4EDFF8B0802360D92D66
:1005980008D1FF2B06D12268EAB128491B4800F090
:1005A80058FE18E01D4800F06BF9236881465A1C74
:1005B800B2F5806F226008F8030007DB1F49134873
:1005C80000F047FE00233B60FFF782FD013E2B460B
:1005D800E1D04D46DBE7114800F014F901F076FE52
:1005E800174901F0CEF901F071FE164901F0BFF983
:1005F800154906A8FFF75AFD07A8FFF776FD42F24E
:10060800107001F045FA0BB0BDE8F08380030020BC
:100618002B2D0A081D2D0A08542D0A0874030020E2
:10062800682D0A087B2D0A08862D0A08952D0A08C8
:10063800AF2D0A086C03002001401F009C03002016
:10064800BC2D0A08C92D0A08DD2D0A080C4B10B567
:1006580000241C7000F066FA21460A4C012000F0C4
:100668000BFC204601F004F8074A0849204602F02E
:10067800F5F8BDE810400C220321054800F042B807
:1006880070030020800300206803002021010A086D
:100698007403002000F046BA00F044BA00F042BAF1
:1006A80000F040BA7FB5024613790846956833B121
:1006B8003DB90C4904B0BDE8704001F045B90A4B9A
:1006C80000E00A4B167B0A4C0A49527B012E08BFF0
:1006D8002146029201910095074A002101F07FF915
:1006E80004B070BD21390A08993C0A0810390A0873
:1006F80019390A081D390A0837390A080368C9B2BE
:100708009B681847F8B5174604460E4600F00AFAE3
:100718001C257D4343591433236000F003FA284411
:10072800838801216360B8B202F02CF8104B1B6873
:10073800D3F85021B3F8543113836672102E12D8AF
:10074800DFE806F0110B110D0D0F0F0911110B0D3C
:10075800090F110D0D00902306E0BA2304E0782359
:1007680002E0602300E04223A3722046F8BD00BFE8
:10077800A00700203C21014800F0F4BC2C08002010
:100788002DE9FF4188461746164C174B174A184E55
:10079800009301250023694620468DF80430029213
:1007A8008DF80D308DF80C5000F06CFC33685FFA52
:1007B80088F1D3F85021B3F854312046538300F020
:1007C800D1FCF9B2204600F0CDFC33682046D3F8BE
:1007D8005021B3F85431138300F03BFC284604B091
:1007E800BDE8F0812C080020FC2D0A0800127A00D0
:1007F800A007002041F08001FFF7C2BF0222842138
:10080800FFF7BEBF01228421FFF7BABFFFF7FABF87
:10081800F0B50F46164B85B0164C0093164B174E85
:10082800002502936946012320468DF804508DF86F
:100838000C308DF80D5000F025FC3368F9B2D3F870
:100848005021B3F854312046538300F08BFC2946DD
:10085800204600F087FC054633682046D3F850212F
:10086800B3F85431138300F0F4FB284605B0F0BD0B
:10087800FC2D0A082C08002000127A00A00700208E
:100888003D21FFF7C5BF01F07F01FFF7C1BF70B57C
:1008980005460E461446FFF7F6FF40EA04023146C5
:1008A8002846BDE87040D2B2FFF7A4BF10B5144681
:1008B800FFF7E9FF204010BD70B542210546FFF75C
:1008C800A7FF432104462846FFF7A2FF4421064616
:1008D8002846FFF79DFF44EA062400F07F0044EA1B
:1008E800004070BD09B90172704701230372704757
:1008F80070B506460C46154601F090FFB17A4908D6
:1009080001F042FE01F08AFF2112FFF7F7FE01F025
:1009180085FFE1B2FFF7F2FE01F080FFE9B2FFF7D1
:10092800EDFE01F07BFF01F036FE20B9012001F059
:10093800AFF8012070BD002070BD2DE9F0410746D9
:100948000C464FF6FF78454504F1040401D1FF2E0B
:1009580009D034F8045C14F8026C2946324638464B
:10096800FFF7C6FFEFE70120BDE8F081062911D89F
:10097800DFE801F0100406080A0C0E0007490AE037
:10098800074908E0074906E0074904E0074902E08B
:10099800074900E00749FFF7D0BF00BF3E3A0A0801
:1009A800123B0A08AA3A0A08002E0A0856390A0809
:1009B800882F0A087A3B0A0870B504460D46164681
:1009C80001F02CFFA17A490801F0DEFD01F026FFB5
:1009D800290AFFF793FE01F021FFE9B2FFF78EFE27
:1009E80001F01CFF01F0D7FD01F018FFA17A0122E8
:1009F800D14001F0C0FD01F011FF03681B69984761
:100A080028B101F00BFF03685B699847307001203B
:100A180001F03EF8012070BD13B5437A0446032B5C
:100A280070D1802243F20801FFF762FF3649204661
:100A3800FFF783FF642001F02BF8237A012B23D1E1
:100A4800642001F025F831492046FFF776FF304948
:100A58002046FFF772FF642001F01AF8A82243F637
:100A680018012046FFF744FF102243F22161204677
:100A7800FFF73EFFB02243F601012046FFF738FF9B
:100A8800042244F207413AE0212244F24071204610
:100A9800FFF72EFF2A2245F21E012046FFF728FF06
:100AA800F82245F202012046FFF722FF012245F213
:100AB8001F012046FFF71CFF61224FF486412046A4
:100AC800FFF716FF0DF1070243F618012046FFF75E
:100AD80073FF9DF8072043F6180142F06002204694
:100AE800FFF706FF0DF1070243F221612046FFF7E9
:100AF80063FF43F221619DF8072002F0DF022046E0
:100B0800FFF7F6FE02B010BDF02F0A08682E0A089B
:100B18007A3B0A0808B500F005F8014B186008BDD3
:100B2800A007002008B5024B1B681B68019308BD8D
:100B3800B001060808B5024B1B689B68019308BD05
:100B4800B001060808B5024B1B681B68019308BD75
:100B5800B401060808B5024B1B685B69019308BD20
:100B6800B401060808B5024B1B68DB69019308BD90
:100B7800B401060808B5024B1B681B6A019308BD3F
:100B8800B401060808B5024B1B685B6A019308BDEF
:100B9800B401060808B5024B1B68DB6B019308BD5E
:100BA800B401060808B5024B1B685B68019308BDD1
:100BB8009C01060808B5024B1B685B69019308BDD8
:100BC8009C01060808B5024B1B681B6B019308BD06
:100BD800D001060808B5024B1B689B6B019308BD42
:100BE800D001060808B5024B1B681B6C019308BDB1
:100BF800D001060808B5024B1B689B69019308BD24
:100C0800C401060808B5024B1B685B6A019308BD5E
:100C1800C401060808B5024B1B689B6A019308BD0E
:100C2800C401060808B5024B1B68DB6A019308BDBE
:100C3800C401060808B5024B1B681B6B019308BD6D
:100C4800C401060808B5024B1B685B6B019308BD1D
:100C5800C401060808B5024B1B689B6B019308BDCD
:100C6800C401060808B5024B1B681B6C019308BD3C
:100C7800C401060808B5024B1B681B6C019308BD2C
:100C8800AC01060808B5024B1B68DB6C019308BD74
:100C9800AC01060808B5024B1B685B6D019308BDE3
:100CA800AC01060808B5024B1B689B6D019308BD93
:100CB800AC01060808B5024B1B68DB6D019308BD43
:100CC800AC01060808B5024B1B681B6E019308BDF2
:100CD800AC01060808B5024B1B685B6E019308BDA2
:100CE800AC01060808B5024B1B689B6E019308BD52
:100CF800AC01060808B5024B1B68DB6E019308BD02
:100D0800AC01060808B5024B1B681B6F019308BDB0
:100D1800AC01060808B5024B1B685B6F019308BD60
:100D2800AC01060808B5034B1B68D3F88030019363
:100D380008BD0000AC01060808B5024B1B681B681B
:100D4800019308BDBC01060808B5024B1B685B6827
:100D5800019308BDBC01060808B5024B1B689B68D7
:100D6800019308BDBC01060808B5024B1B68DB6887
:100D7800019308BDBC01060808B5024B1B681B6936
:100D8800019308BDBC01060808B5024B1B681B6A25
:100D9800019308BDBC01060808B5024B1B681B6B14
:100DA800019308BDBC01060808B5024B1B685B6CC3
:100DB800019308BDBC01060808B5024B1B681B68F7
:100DC800019308BDD801060808B5024B1B685B688B
:100DD800019308BDD801060808B5024B1B681B69BA
:100DE800019308BDD801060808B5024B1B685B696A
:100DF800019308BDD801060808B5024B1B689B691A
:100E0800019308BDD801060808B5024B1B68DB69C9
:100E1800019308BDD801060808B5024B1B681B6A78
:100E2800019308BDD801060808B5024B1B685B6C26
:100E3800019308BDC001060808B5024B1B689B6CEE
:100E4800019308BDC001060808B5024B1B681B6D5D
:100E5800019308BDA801020808B5024B1B685B682E
:100E6800019308BDA401060808B5024B1B685B691D
:100E7800019308BDA401060808B5024B1B68DB6A8C
:100E8800019308BDA401060808B5024B1B68DB6C7A
:100E9800019308BDA401060808B5024B1B685B6DE9
:100EA800019308BDA401060808B5034B1B68D3F8D5
:100EB8009030019308BD0000A401060808B5034B53
:100EC8001B68D3F89C30019308BD0000A4010608F4
:100ED80008B5024B1B685B68019308BDC80106088A
:100EE80008B5024B1B689B68019308BDC80106083A
:100EF80008B5024B1B68DB68019308BDC8010608EA
:100F080008B5024B1B681B69019308BDC801060898
:100F180008B5024B1B685B69019308BDC801060848
:100F280008B5024B1B689B69019308BDC8010608F8
:100F380008B5024B1B68DB69019308BDC8010608A8
:100F480008B5024B1B681B6A019308BDC801060857
:100F580008B5024B1B681B6B019308BDC801060846
:100F680008B5024B1B685B6B019308BDC8010608F6
:100F780008B5024B1B689B68019308BDCC010608A5
:100F880008B5024B1B681B6A019308BDCC01060813
:100F980008B5024B1B685B6A019308BDCC010608C3
:100FA80008B5024B1B68DB6B019308BDCC01060832
:100FB80008B5024B1B681B68019308BDA001060811
:100FC80008B5024B1B685B68019308BDA0010608C1
:100FD80008B5024B1B689B68019308BDA001060871
:100FE80008B5024B1B685B6A019308BDA00106089F
:100FF80008B5024B1B68DB6A019308BDA00106080F
:1010080008B5024B1B681B6B019308BDA0010608BD
:10101800704710B50446102101F025FC204610BD8C
:1010280070B504460E46074B0025036040F80C5F78
:10103800FFF7C8FD30462671FFF794FDA5602046EE
:1010480070BD00BFF03B0A084FF6FF710079FFF74B
:1010580079BDC068FFF7C6BD400830B518600024E8
:101068001868E5B2884206D90134082C02D0400835
:101078001860F5E70725024B5B5D137030BD00BFB4
:10108800F83B0A082DE9F04380468FB0C0680F4648
:10109800FFF7A0FD98F804401422002109A801F0E8
:1010A80048FD0B232046002209A9ADF82430FFF79C
:1010B80069FD9DF82D404CB19DF82C502DB90C9E22
:1010C8009DF834909DF8354003E00024A14626465B
:1010D80001253B790DB1002B40D19D420BD1BA6857
:1010E800B24208D18DF820908DF82140BDF820102B
:1010F800BA89914232D023BB8DF80F300DF10F021F
:1011080004ABB9680A98FFF7A7FF3B7905B113BB91
:10111800AB4209D000213B7B01917C7B9DF80F20DD
:1011280098F80400009413E0BB68B342F2D38DF83A
:1011380020908DF82140BDF82020BB899A42E9D142
:1011480009E000231A4698F804000193009301214E
:10115800FFF720FD02E0049BB342DBD100200FB073
:10116800BDE8F08308B50079FFF7F4FCC0B208BD0C
:101178000079FFF7FFBC00004FF6FF72034B002019
:10118800187058809A80FFF767BE00BFA407002038
:1011980010B5044601F021FD013823182046984275
:1011A80006D20278197800F8011B03F80129F6E73E
:1011B80010BD70B50C46911E222920D82546294617
:1011C80010B9234430220EE0B0FBF2F602FB160001
:1011D800C1B2092805F8011B94BF3031573105F811
:1011E800011C3046EBE7994202D201F8012BFAE7DD
:1011F800002320460B70FFF7CBFF204670BD002070
:1012080070BD38B5031E0C4615460BDAB3F1004F16
:101218004FF02D0214BF5842184601230A702A467F
:10122800194400E00123FFF7C4FF204638BD08B584
:101238000123FFF7BEFF08BD37B502AC036804F809
:10124800011DDD6B012247F230532146A84703B048
:1012580030BD10B40368DC6B47F23053A44610BCB1
:10126800604737B502AC036804F8011DDD6B214601
:1012780013460122A84703B030BD704770470020CD
:10128800704710B50446142101F0EDFA204610BD50
:10129800FEF701BF10B5044603689B689847A3682A
:1012A800013BA3602BB923682046BDE81040DB68EA
:1012B800184710BD70B5044606464D69044B8C3579
:1012C80044F8043B0FCD0FC42B683046237070BD23
:1012D800B43D0A0810B543690446B3F88620B3F84C
:1012E80084309A4205D06269B2F884301344187980
:1012F80010BD03681B6998470028F4D14FF0FF30F0
:1013080010BD10B543690446B3F88620B3F884309D
:101318009A4208D06269B2F88430591CA2F8841045
:101328001344187910BD03681B6998470028F1D148
:101338004FF0FF3010BDF8B543691746B3F8862063
:10134800B3F8843005469A420E4606D103681B69F5
:10135800984710B94FF0FF3414E069693046B1F886
:101368008430B1F886401944E41ABC4228BF3C4690
:101378000431224601F0D2FB6A69B2F88430234472
:10138800A2F884302046F8BD42690023A2F88430D0
:101398004269A2F88630704738B542690446B2F807
:1013A80086301BB1B2F884209A420CD0206901F033
:1013B800AFF90368DB68984718B363691868FFF7E3
:1013C800C3FC18B91DE0FFF7DFFFEFE76069B0F86D
:1013D80086107F2915D8051DC1F1800200232944F4
:1013E8000068FFF7C9FC00280BDD6369B3F88620A5
:1013F8000AB9A3F884206269B2F886301844A2F8C2
:1014080086006269B2F88630B2F88400181A38BDCE
:1014180038B5436904461868FFF796FC18B1636944
:101428001868FFF7B1FC6569FFF7B6FC28606069CA
:10143800112200218C3001F07CFB2046BDE83840A9
:10144800FFF7A2BF2DE9F0411F4603688AB0DB6AA7
:1014580006460C4615469847384601F059F9036880
:10146800DB689847002856D000972B4606220121B2
:101478000220D6F81480FFF76FFC2023C8F800007C
:1014880000270293736903971B6801200193234B7C
:1014980002AA009322493B46FFF7D6FC73691868F5
:1014A800FFF752FC002836D03046FFF76DFF0223C5
:1014B800ADF808302B0A8DF80A30E3794FF4FA506A
:1014C8008DF80C30A3798DF80B508DF80D306379B9
:1014D8008DF80E3014F8043F8DF80F30FFF7A4FC98
:1014E80073690546102202A91868FFF73DFC80467B
:1014F8002846FFF799FC0FCC75698C350FC5236812
:101508002B70B8F1000F05D033683046DB6A984776
:10151800384600E001200AB0BDE8F0816F3C0A08B7
:10152800683C0A0810B5436904461868FFF70CFCC4
:1015380008B9002010BD206901F0EAF80368DB68EB
:1015480098470028F5D063691868FFF7F5FBB0FAEB
:1015580080F0400910BD2DE9F3410025456004469F
:101568000E4617469846FFF7DDFF60B160690195A2
:10157800CDF800802B463A4631460068FFF714FC48
:10158800002803DA01E04FF0FF30606002B0BDE8E8
:10159800F08138B50446FFF7C5FF00BB6369B3F8AF
:1015A8008610B3F88420914219D11868FFF7CCFB54
:1015B80028B163691868FFF7BFFB012801D000252F
:1015C8000EE0236820461B699847002814BF0125B0
:1015D800002505D123682046DB6A984700E00125ED
:1015E800284638BD08B5FFF79DFF003018BF012019
:1015F80008BD10B5044600230160A0F88430A0F8A7
:101608008630883000F0BEFD204610BD4FF47A7257
:1016180070B58260144A00234360026043618361AD
:101628000446A0200E46FEF734FD054610B13146AB
:10163800FFF7DFFF1420FEF72CFD034628B1012237
:1016480042608260094A05610260A0696561A36120
:1016580028B14368013B43600BB9FFF71BFE2046E6
:10166800FFF792FE204670BD243C0A08083C0A0891
:1016780010B50446FFF790FB01462046FFF7C6FF6A
:10168800204610BD10B504460068FFF75DFB10B199
:101698002068FFF779FB204610BD10B50469204685
:1016A800FFF7F0FF24B12046BDE81040FEF7F3BC79
:1016B80010BD00002DE9F0431F4603688FB0DB6AB8
:1016C80006460C4690469847124800F0D4FFF0B101
:1016D80002A800F057FD204601F07FFA002300938E
:1016E80081B23B4603AA2046FFF7A6FB78B93368C8
:1016F80009ADD3F82090084B03AC08930FCC0FC565
:10170800236842462B7008A93B463046C8470FB0AD
:10171800BDE8F08324080020B43D0A0810B504464B
:101728000068FFF74DFC204610BD10B50446006860
:1017380008B1FFF745FC00232360A360636010BD78
:1017480038B504460D4600680131FFF741FC10B179
:1017580084E82100012038BD10B50368044613B1A0
:1017680043688B4207D22046FFF7EAFF20B1A368FF
:101778000BB922681370012010BD70B50E461146D2
:1017880004461546FFF7E8FF18B92046FFF7CDFFD6
:1017980009E02A463146A560206801F0BFF92268B1
:1017A800A3680021D154204670BD38B500230446F3
:1017B80003604360836003730D4639B1084601F046
:1017C8000CFA294602462046FFF7D7FF204638BDC7
:1017D80038B505460C4641B1084601F0FEF92146E8
:1017E80002462846FFF7C9FF01E0FFF79EFF28469B
:1017F80038BD1FB50446002323606360A3602373CC
:10180800084601A9FFF713FD01A92046FFF7E0FFED
:10181800204604B010BD10B5044600238AB02360EA
:101828006360A3602373084601A9FFF7EAFC01A9D6
:101838002046FFF7CDFF20460AB010BD10B504467C
:101848008AB0002323606360A360237308460123E2
:1018580001A9FFF7AEFC01A92046FFF7B9FF204612
:101868000AB010BD70B504460E4609B9002070BD17
:101878006AB18368D5182946FFF76EFF0028F5D0AE
:101888002068A3683146184401F084F9A560012056
:1018980070BD10B58A6809680446FFF7E3FF10B900
:1018A8002046FFF742FF204610BD00000EB4FFB5EA
:1018B80009AC54F8047B054623463A46052102A89C
:1018C8000194FFF78DFB06460B492846FFF76DFF8D
:1018D80031462846FFF740FF286830B123463A468C
:1018E800711C0194FFF77CFBA860284604B0BDE892
:1018F800F04003B0704700BF993C0A08F8B50646A7
:101908000D468F180024BD420CD0336815F8011B12
:101918009B6830469847002801DB0444F3E7002C15
:1019280008BF04462046F8BD70B505460C46084673
:1019380049B101F052F92B68024621462846BDE814
:101948007040DB68184770BD08B5FFF7EDFF08BDAC
:1019580003689B68184738B50D210546FFF7F8FF5F
:101968000A2104462846FFF7F3FF204438BD38B55E
:101978000546FFF7D9FF04462846FFF7ECFF204449
:1019880038BDFFF7F4BF012A98BF0A2230B50B46CD
:101998008BB000218DF824100DF12304B3FBF2F570
:1019A80005FB1233DBB2092B94BF30333733DBB27C
:1019B800214604F801392B46002DEFD1FFF7B4FF7B
:1019C8000BB030BD10B422B90368C9B29B6810BC13
:1019D8001847D2B210BCFFF7D6BFFFF7F3BF0CB45D
:1019E8002DE9F04387B000AF07F1380454F8049BA1
:1019F80005460E4623464A461421381D3C60FFF72B
:101A0800EFFA132805D8391D2846FFF78DFF04463D
:101A180013E000F1080323F00703E846ADEB030DDC
:101A2800411C23464A4668463C60FFF7D9FA694696
:101A38002846FFF779FF0446C5461EB12846FFF73A
:101A48008AFF044420461C37BD46BDE8F04302B077
:101A5800704700231A4619464068FFF759BA0B68C1
:101A6800036013B15A6801325A607047014A024B49
:101A78001A6070473B3D0A08AC070020024B1A6801
:101A8800024B1A60704700BF00030020B007002017
:101A98000021FFF7E9B910B58368044613B10322A2
:101AA80001469847204610BD10B50446FFF7F3FFDE
:101AB800204610BD13B50B46044603C88DE8030045
:101AC80093E8030084E803009DE8030083E803002B
:101AD80002B010BD034800238360034A034900F0A5
:101AE800BDBE00BFB407002068030020B11A0A0871
:101AF80008B5144B33B100F0E9FB03681B6998473C
:101B0800002816DC104B33B100F090FC03681B6909
:101B18009847002810DC0D4B0BB1AFF300800C4B3D
:101B28007BB100F001FC03681B699847002806DCBC
:101B380008BDAFF30080E5E7AFF30080EBE7AFF354
:101B4800008008BD00000000000000000000000048
:101B58000000000008B5FFF7CBFFFFF72BF8014B9B
:101B6800186008BD4C0800200248034A0349121AAD
:101B780000F0D4BF0040024004400240603F0A0821
:101B880007B5002300931A466FF07701FFF796F91F
:101B980003B05DF804FB000007B543880A2B08D0A2
:101BA800502B09D1094B1B683BB103B05DF804EB1E
:101BB8001847FFF7E5FF06E0002300931A466FF089
:101BC8007701FFF77BF903B05DF804FBC407002039
:101BD80038B5104C104D2368AB42104B0CBF012296
:101BE80000221A7002D0FFF7BFFF2560FEF7DAFF68
:101BF800044600F0A7FF0A4B13B12046AFF300805C
:101C080000210748FFF7CCF9BDE838400021054816
:101C1800FFF74AB9004002401E1C279AC807002057
:101C280000000000A11B0A0870470020704710B58B
:101C38000446102100F017FE204610BD08B508B173
:101C4800FFF7F5FF08BD38B5C468ECB12378022B5F
:101C580002D1E068FFF7B4F9656835B12846FFF7A7
:101C68001AFF1021284600F0FEFDA56835B1284668
:101C7800FFF711FF1021284600F0F5FD2046BDE8CA
:101C88003840142100F0EFBD38BD13B5044691E883
:101C9800050000234B600B602060626001A801937F
:101CA8000093FEF722FA204602B010BDF7B50C46A5
:101CB80006460F4654F8043B02AD45F8083D214658
:101CC80001A8FFF7CCFE29463046FFF7DEFF01A842
:101CD800FEF70BFA2046FEF708FA3846082100F00E
:101CE800C2FD304603B0F0BD826810B50AB900F0F5
:101CF800BCFDC368BDE81040184708B5006800F18E
:101D08001001FFF7F1FF08BD826810B50AB900F0AD
:101D1800ACFDC368BDE81040184708B5006800F17D
:101D28001001FFF7F1FF08BD38B5002383608B6809
:101D380004460D462BB102229847EB68E360AB6876
:101D4800A360204638BD00002DE9F0414FF69C7392
:101D580004684FF0020086B0B1F904208B8000239C
:101D68000F688DF800300B60D4E84F1F994203D1FB
:101D7800C4E8450F002DF7D102D08DF800106CE0B3
:101D880014F10C051CBFE7602282BFF35F8F18BFF8
:101D98001F4601236370BFF35F8F04F1080300201F
:101DA80053E8006F43E80002002AF9D1BFF35F8FC0
:101DB800002E52D0FFF768F820B129463046FFF7C9
:101DC80093FF43E031466846FFF7AEFFE068B4F999
:101DD800105008B100F0E6FE04901020ADF8145041
:101DE800FEF757F9054630B34FF00008C0F80880F1
:101DF8001820FEF74EF90446C0B1C0F80880014625
:101E08006846FFF757FE029BA268A360039B0292F5
:101E1800E268E360BDF814300392A3824FF69C7326
:101E2800ADF81430049BCDF8108023610E4B2C6064
:101E3800EB600E4BAB600498FFF7C2F86846FFF7FB
:101E48002AFE002229460A48FFF726F83046FFF7FF
:101E580022FE1021304600F006FD3846FFF7B0F8A4
:101E680006B0BDE8F08100BF031D0A08651F0A0817
:101E7800B5240A082DE9F04F8BB007AD4FF0000BE1
:101E88000646994614200C230F4690469DF850A00C
:101E9800C5F804B0C5F808B00793FEF7FAF8044689
:101EA80038B180F800B080F801B0C0F804B0C0F8CC
:101EB80008B00023102003940493FEF7EAF828B131
:101EC800012343608360234BC4600360224B04906A
:101ED80008200893FEF7DDF8044628B1039B04A9FF
:101EE80040F8043BFFF7BBFD00955FFA8AF34A46CA
:101EF800414638460994FFF743F8B8B9039B5B7825
:101F080003F0FF0293B94FF69C7305A903A8059245
:101F1800ADF81830FFF718FF0598FFF751F805A836
:101F28000999FFF7C3FE06A8FEF7DFF8039B04A98B
:101F380006A80593FFF793FD05A93046FFF7A5FE10
:101F480006A8FEF7D2F804A8FEF7CFF830460BB083
:101F5800BDE8F08F983D0A08D1200A08022AF8B592
:101F6800044606D0032A17D0012A21D10B68036042
:101F78001EE018200E68FEF78CF8054650B1314671
:101F8800FFF7D2FE3069B6F9147008B100F00AFE06
:101F98002861AF8225600BE004684CB12069FFF727
:101FA8000FF82046FFF777FD1821204600F05BFC6C
:101FB8000020F8BD38B5002383608B6804460D46C1
:101FC8002BB102229847EB68E360AB68A360204618
:101FD80038BD022A70B5044606D0032A11D0012A5A
:101FE80018D10B68036015E014200E68FEF751F84D
:101FF800054620B13146FFF7DDFF337C2B742560A1
:1020080008E0046834B12046FFF745FD1421204656
:1020180000F029FC002070BDF0B50C46BFF35F8FBF
:1020280087B0002350E8006F40E80032002AF9D159
:10203800BFF35F8F002E3FD01846FEF725FF0746F7
:1020480020B121463046FFF75FFE2EE0314601A859
:10205800FFF7B0FF237810208DF81430FEF719F839
:102068000546D0B187601420FEF713F8044678B10E
:102078008760014601A8FFF71DFD039BA268A360C6
:10208800049B0392E268E3609DF814300492237481
:102098000A4B2C60EB600A4BAB6001A8FFF7FBFC16
:1020A800002229460748FEF7F7FE3046FFF7F3FC03
:1020B8001021304600F0D7FB07B0F0BD231D0A08F9
:1020C800DB1F0A08B5240A0830B5044685B00D465A
:1020D80068461146FFF7EAFD7CB124B228460DB1E7
:1020E80000F060FD029002A96846ADF80C40FFF7C9
:1020F8002BFE0298FEF764FF1DE04FF001020098E6
:102108008DF80840D0E84F3FA34203D1C0E8412FE3
:102118000029F7D102D08DF808300CE010F10C013D
:102128004FF0010318BF0373BFF35F8F043000F84B
:10213800033CFFF771FF01A8FDF7D7FF05B030BDDD
:10214800704710B50446182100F08DFB204610BDDD
:10215800F8B50F4600F10806051D002416F8011D04
:102168000A223846FFF739FCAE42044407D0002C57
:10217800F4D02E213846FFF7EBFB0444EEE7204667
:10218800F8BD000010B50446044B112240F8043B8A
:10219800002100F0CEFC204610BD00BFB43D0A0867
:1021A8000346074A10B543F8042B01F1100251F811
:1021B800044B914243F8044BF9D10A781A7010BDC8
:1021C800B43D0A08024A4160026004220275704761
:1021D800B43D0A0810B59DF8084044EA032343EAD1
:1021E800024242EA016104234160037510BD000008
:1021F80037B5044D05609DF818500095FFF7EAFFC4
:1022080003B030BDB43D0A0841747047704708B543
:102218000021007CFEF7F0FD30EA200028BF4FF0D7
:10222800FF3008BD08B50121007CFEF7E5FD30EA66
:10223800200028BF4FF0FF3008BD08B5007CFEF72E
:10224800D3FD20EAE07008BD08B5007CFEF7C4FDA8
:1022580020EAE07008BD007CFEF7DEBD10B504463C
:10226800142100F000FB204610BD38B50446007C60
:102278000D46FEF7B9FD002801DC607C28B129462F
:10228800207CFEF7C1FD20EAE07038BD10B5044699
:10229800002363604FF47A73A360054B08462360FC
:1022A8000123217463741146FEF786FD204610BD94
:1022B800C83D0A080022007CFEF786BD10B504461A
:1022C8001422002100F035FC204610BD30B50E4D1B
:1022D80087B001A8FFF7F2FF296811F0010410D1B7
:1022E8002846FDF7DAFE60B101AA21460748FFF744
:1022F800CDFF2846FDF7D6FE054A0649034800F0FB
:10230800ADFA024807B030BDCC070020D407002042
:102318006803002015220A0810B50446142200217B
:1023280000F007FC204610BD10B50E4C86B001A881
:10233800FFF7F2FF2368DB0710D42046FDF7ADFE58
:1023480060B101AA01210848FFF7A0FF2046FDF768
:10235800A9FE064A0649044800F080FA024806B079
:1023680010BD00BFD0070020E80700206803002048
:1023780015220A0870474174704708B5007CFEF7BB
:1023880071FC20EAE07008BD08B5007CFEF742FC4D
:1023980020EAE07008BD08B5007CFEF74BFC30EA87
:1023A800200028BF4FF0FF3008BD08B5007CFEF7BD
:1023B80039FC30EA200028BF4FF0FF3008BD007C10
:1023C800FEF740BC10B50446142100F04CFA204634
:1023D80010BD70B5457C04460E4625B9007CFEF755
:1023E80041FC002805DD3146207CBDE87040FEF741
:1023F80009BC284670BD000010B5044608461146C1
:10240800002262604FF47A72A260054A207422604A
:10241800012262741A46FEF7EDFB204610BD00BF8C
:10242800F83D0A08007CFEF715BC0000F8B5194C09
:1024380025684DB98420FDF72CFE064618B1842284
:10244800294600F076FB2660134D2E684EB984208D
:10245800FDF71FFE074618B18422314600F069FBDC
:102468002F600E4F396811F0010611D13846FDF77B
:1024780014FE68B1226831462B680948FFF7BCFF93
:102488003846FDF70FFE074A0749054800F0E6F908
:102498000348F8BD18080020100800201408002080
:1024A800FC070020680300207D230A0810B5836814
:1024B80004460BB900F0D9F9C3689847A3681BB163
:1024C80003222146204698472046BDE810401021A7
:1024D80000F0C9B97047F8B5064615460C468F187E
:1024E800BC4206D0336814F8011B9B6830469847F5
:1024F800F6E72846F8BD0022007CFEF7E3BB002182
:10250800007CFEF7E7BB0021007CFEF7EBBB002157
:10251800007CFEF7EFBB0021007CFEF7F3BB10B593
:102528000446142100F09FF9204610BD10B504465A
:1025380008464FF47A73A360044B0021207461604D
:102548002360FEF7EFFB204610BD00BF283E0A08B7
:102558000022007CFEF78EBB00231A461946007C39
:10256800FEF790BB13B50024007C0094FEF792FBA5
:10257800C0B202B010BD0123D2B2C9B2FFF7F2BF98
:102588000022007CFEF78EBBC9B2FFF7F9BF00221C
:10259800007CFEF78FBB0121FFF7F9BF0021007C0B
:1025A800FEF7B8BB002211464068FEF7A9BCF0B59B
:1025B800164689B011220F460446002103A800F0F0
:1025C800B8FA304600F009FB0025009581B27B6817
:1025D80003AA3046FEF730FC20B129462046FFF713
:1025E800F1FD03E003A92046FFF7DAFD204609B014
:1025F800F0BD002211464068FEF7A2BC0022114639
:102608004068FEF7ADBC00224068FEF7A1BC00227E
:1026180081F001014068FEF78BBC00231A46194679
:102628004068FEF77DBC002211464068FEF758BCA2
:10263800002202214068FEF75BBC00231A4640686E
:10264800FEF746BC024B04225A60024A1A607047E1
:102658001C080020503E0A0800231A464068FEF76E
:1026680037BC002202214068FEF742BC0022114616
:102678004068FEF735BC002211464068FEF740BCB2
:1026880000231A4619464068FEF742BC00231A4642
:1026980019464068FEF744BC002281F001014068F9
:1026A800FEF746BC00224068FEF752BC00221146E5
:1026B8004068FEF755BC002211464068FEF740BC52
:1026C80070B516468EB0044608A8FFF75BFD1122C8
:1026D800002103A800F02DFA304600F07EFA00250C
:1026E8000A4B009581B25B6803AA3046FEF7A4FB4B
:1026F80020B129462046FFF765FD03E003A92046DF
:10270800FFF74EFD20460EB070BD00BF1C0800202C
:10271800034B044A04280CBF10461846704700BFF4
:10272800240800201C080020024B034A1A600022DB
:102738005A60704724080020843E0A0810B50446F1
:102748000F48FEF715FD28B1A4F10D03022B01D89F
:10275800002010BD00F062F8FFF720FF08B1012C3F
:10276800F6D9FFF763FEFFF75DFE18B1A4F1120377
:10277800012BEDD9172C8CBF0020012010BD00BF04
:102788002C080020172838B504460D460AD8FF291A
:1027980008D0FFF7D3FF28B129462046BDE83840C6
:1027A800FEF7C8B938BD000070B50C4C0C4E0D4D85
:1027B80000212046FEF734FC20460B4C32462946C1
:1027C80000F04CF801212046FEF72AFC3246294643
:1027D8002046BDE8704000F041B800BF2C0800203A
:1027E8006803002019100A083C08002013B5084C9B
:1027F80000231A46194600932046FFF7F9FC2046A5
:10280800044A054902B0BDE8104000F027B800BFEF
:10281800500800206803002049210A0838B50B4DEC
:10282800296811F001040FD12846FDF736FC58B18C
:1028380021460748FFF77AFE2846FDF733FC054A8C
:102848000549034800F00AF8014838BD6808002027
:102858006C08002068030020DD240A080B460146A6
:10286800184600F04DB9FDF716BC08B5FEF7C0FBD9
:10287800184B1A68D1075CBF01221A60164B1A68F8
:10288800D2075CBF01221A60144B1A68D0075CBFDC
:1028980001221A60124B1A68D1075CBF01221A6024
:1028A800104B1A68D2075CBF01221A600E4B1A68D7
:1028B800D0075CBF01221A600C4B1A68D1075CBFB5
:1028C80001221A600A4B1A68D2075CBF01221A60FB
:1028D800704700BF9C08002098080020940800203A
:1028E800900800208C080020880800208408002018
:1028F80080080020244B1A68D0075CBF01221A60A8
:10290800224B1A68D1075CBF01221A60204B1A6853
:10291800D2075CBF01221A601E4B1A68D0075CBF41
:1029280001221A601C4B1A68D1075CBF01221A6089
:102938001A4B1A68D2075CBF01221A60184B1A6832
:10294800D0075CBF01221A60164B1A68D1075CBF1A
:1029580001221A60144B1A68D2075CBF01221A6060
:10296800124B1A68D0075CBF01221A60104B1A6814
:10297800D1075CBF01221A600E4B1A68D2075CBFF0
:1029880001221A60704700BFCC080020C808002048
:10299800C4080020C0080020BC080020B808002097
:1029A800B4080020B0080020AC080020A8080020C7
:1029B800A4080020A0080020244B1A68D0075CBF98
:1029C80001221A60224B1A68D1075CBF01221A60E3
:1029D800204B1A68D2075CBF01221A601E4B1A6886
:1029E800D0075CBF01221A601C4B1A68D1075CBF74
:1029F80001221A601A4B1A68D2075CBF01221A60BA
:102A0800184B1A68D0075CBF01221A60164B1A6867
:102A1800D1075CBF01221A60144B1A68D2075CBF49
:102A280001221A60124B1A68D0075CBF01221A6093
:102A3800104B1A68D1075CBF01221A600E4B1A6846
:102A4800D2075CBF01221A60704700BFFC08002053
:102A5800F8080020F4080020F0080020EC08002006
:102A6800E8080020E4080020E0080020DC08002036
:102A7800D8080020D4080020D0080020184B1A6875
:102A8800D1075CBF01221A60164B1A68D2075CBFD7
:102A980001221A60144B1A68D0075CBF01221A6021
:102AA800124B1A68D1075CBF01221A60104B1A68D2
:102AB800D2075CBF01221A600E4B1A68D0075CBFB0
:102AC80001221A600C4B1A68D1075CBF01221A60F8
:102AD8000A4B1A68D2075CBF01221A60704700BF10
:102AE8001C090020180900201409002010090020E2
:102AF8000C09002008090020040900200009002012
:102B080010B5054C13462CB10A4601460220AFF316
:102B1800008010BD204610BD0000000010B5431E07
:102B28000A44914204D011F8014B03F8014FF8E729
:102B380010BD03460244934202D003F8011BFAE792
:102B48007047000038B5124B05461C68A36BD3B913
:102B58001820FEF72DFA43F20E33A06303804AF6DD
:102B6800CD33438041F2342383804EF26D63C380BA
:102B78004DF6EC630381052343810B2383810122F6
:102B88000023C0E90423A36B00221D615A6138BDEC
:102B980064030020034611F8012B03F8012B002AD7
:102BA800F9D17047024B0146186800F003B800BF1E
:102BB8006403002070B5064608460C4600F00DF880
:102BC800451C29463046FEF71BFA064618B12A4628
:102BD8002146FFF7A3FF304670BD034613F8012BCB
:102BE800002AFBD1181A0138704700001D000A0896
:102BF8005D000A0889000A088D000A080000000024
:102C080073746174757300436170747572650047FD
:102C18006F6F64206D6F726E696E672C20566572D7
:102C280073696F6E3A2000376E00417264754341D4
:102C38004D2053746172742100636865636B696E1B
:102C48006720666F722063616D6572610043686515
:102C5800636B696E6720666F722063616D65726170
:102C68002E2E2E0053504920696E7465726661637A
:102C780065204572726F7221006D7943616D2E7205
:102C88006561645F726567207361696420004361F0
:102C98006D65726120666F756E642E0043616E27E4
:102CA800742066696E64204F5635363432206D6F55
:102CB80064756C6521004E6F7420666F756E642CA8
:102CC8002063616D657261207361797320002564EA
:102CD8003A2564004F56353634322064657465638E
:102CE8007465642E004F5635363432206465746539
:102CF800637465643A200043616D65726120666F94
:102D0800756E642C20696E697469616C697A696E84
:102D1800672E2E2E003139322E3136382E302E3194
:102D2800303500417474656D7074696E6720746F16
:102D3800207265636F6E6E65637420746F205443F0
:102D480050205365727665722E2E2E0054616B6981
:102D58006E67206120706963747572652E2E2E006F
:102D680077616974696E6720666F722070686F7426
:102D78006F20006261696C696E672E2E2E00496DA6
:102D88006167652073697A65206973200041434B48
:102D980020434D442043414D204361707475726552
:102DA80020446F6E652E00436170747572652064EF
:102DB8006F6E6500456E64206F662050686F746F93
:102DC80000736C656570696E6720313020736563C8
:102DD8006F6E647300536C656570696E672031307F
:102DE800207365636F6E64730000000000000000CC
:102DF80000000000AD060A08003801000138B000E4
:102E08000238000003380A0004380A000538200098
:102E180006380700073898000838060009384000C7
:102E28000A3804000B38B0000C380C000D3880004C
:102E38000E3807000F38D00001507F008056000080
:102E48008156000082560A008356200084560000EE
:102E5800855600008656070087569800FFFFFF003A
:102E68000335070000300000013000000230000088
:102E7800033000000530FF000630FF0007303F0038
:102E88000C3507000D35D0000236E4001236AC00D0
:102E98001336440021362700223608002336220044
:102EA800043660000537DA000A37800001388A00E6
:102EB80003380A0004380A000538200006380700DD
:102EC8000738980008380A00093820000A3807002F
:102ED8000B3898000C380C000D3880000E380700AD
:102EE8000F38D0001038C200153844001838C80010
:102EF8002438010027380A00003A78000D3A1000FB
:102F08000E3A0D00103A32001B3A3C001E3A3200CD
:102F1800113A80001F3A2000003A78000B4635002D
:102F28001D470000134703001C47500082560A0043
:102F380083562000865607008756980001504F0098
:102F48009B5800009A58C000074408009B5800008E
:102F58009A58C00002300C0002300000033500000F
:102F6800255080000F3A4800103A40001B3A4A00AA
:102F78001E3A3E00113A70001F3A2000FFFFFF0082
:102F8800003801000138B0000238000003380A0098
:102F980004380A000538200006380700073898006A
:102FA80008380A00093820000A3807000B3898004A
:102FB8000C380C000D3880000E3807000F38D00090
:102FC80001507F00805600008156000082560A009A
:102FD8008356200084560000855600008656070058
:102FE80087569800FFFFFF000331930008308200E6
:102FF80017307F001830FC001038C2001536F0007A
:10300800003000000130000002305C000330000096
:103018000430FF000530FF0006304300073037005A
:1030280011300800103010000C462200153804003A
:103038000C37A0000236FC001236FF003436C00000
:103048001336000005367C00213609002236600060
:10305800043640000336A70003362700004021004D
:103068001D402200003654000536040006363F0095
:10307800013C800000504F0020500400815179002D
:103088008251000085512200975101000150FF0034
:1030980000550A000455000005557F0080500800BF
:1030A8000E301800104600001D47050008470600AE
:1030B80008380200093880000A3801000B38E0009F
:1030C8000E3807000F38D0001F50000000504F0086
:1030D80000433000033507000135730002358000D6
:1030E8000B350000033507002438110001351E0098
:1030F800023580000B357F000C380C000D3880003D
:103108000E3803000F38E8000D3A04000E3A0300A9
:103118001838C1000537DB000A3781000138800004
:103128002136870001385000033808002738080086
:1031380010384000043805000538000082560500A4
:1031480083560000063803000738C000865603007F
:103158008756BC00003A78001A3A0500133A300046
:10316800183A0000193A7C00083A1200093AC000DF
:103178000A3A0F000B3AA0000C3507000D35D000B5
:103188000035000001350000023500000A35000056
:103198000B350000033500008A5202008B520400F0
:1031A8008C5208008D5208008E5208008F52100071
:1031B8009052100092520000935202009452000064
:1031C8009552020096520000975202009852000051
:1031D800995202009A5200009B5202009C52000031
:1031E8009D5202009E5200009F52020030300B0098
:1031F800023A0000033A7D00043A0000143A000045
:10320800153A7D00163A0000003A7800083A09009D
:10321800093A60000A3A07000B3AD0000D3A080054
:103228000E3A0600935170009B5804009A58C50046
:103238001E402000014042001C4004008A52010048
:103248008B5204008C5208008D5210008E522000C0
:103258008F52280090523000925200009352010081
:1032680094520000955204009652000097520800AC
:1032780098520000995210009A5200009B52200068
:103288009C5200009D5228009E5200009F52300020
:103298008252000000530000015320000253000036
:1032A80003537C000C5300000D530C000E532000F8
:1032B8000F53800010532000115380000853200042
:1032C8000953400004530000055330000653000022
:1032D8000753800014530800155320001953300079
:1032E80016531000175300001853020002543F00F1
:1032F80003540000063400008051FF008151520041
:1033080082511100835114008451250085512400F5
:1033180086510600875108008851080089517C00B1
:103328008A5160008B51B2008C51B2008D5144001B
:103338008E513D008F515800905146009151F80030
:1033480092510400935170009451F0009551F0008F
:1033580096510300975101009851040099511200A9
:103368009A5104009B5100009C5106009D51820017
:103378009E51000025508000835540008455400030
:10338800805502000050CF0010371000323651002F
:10339800023710000337B200043718000B3740001B
:1033A8000D3703003136010032365200063624004C
:1033B8002036960085570700133A30000036520031
:1033C8000436480006361B000D370B000F37C000C7
:1033D8000937010023380000075000000950000099
:1033E80011500000135000009E510000865000004C
:1033F8008750000088500000895000002B300000E2
:1034080008380100093840000A3800000B38F0007D
:10341800003A78000150FF00835550008455500051
:1034280080550200013C8000003C04000058480020
:10343800015831000258210003581B0004581A0093
:1034480005581E0006582900075838000858260055
:10345800095817000A5811000B580E000C580D0097
:103468000D580E000E5813000F581A00105815006A
:1034780011580D001258080013580500145804007C
:10348800155805001658090017580D00185811004E
:1034980019580A001A5804001B5800001C5800004C
:1034A8001D5801001E5806001F5809002058120018
:1034B80021580B002258040023580000245800000B
:1034C800255801002658060027580A0028581700D2
:1034D80029580F002A5809002B5806002C580500B7
:1034E8002D5806002E580A002F580E003058280074
:1034F80031581A003258110033580E0034580E0053
:1035080035580F003658150037581D0038586E00CA
:10351800395839003A5827003B581F003C581E00BC
:103528003D5823003E582F003F58410040580E0098
:1035380041580C0042580D0043580C0044580C00E8
:1035480045580C0046580C0047580C0048580D00C8
:1035580049580E004A580E004B580A004C580E00A5
:103568004D580E004E5810004F581000505811007A
:1035780051580A0052580F0053580E005458100062
:10358800555810005658100057580A0058580E0041
:1035980059580E005A580F005B580F005C580F001E
:1035A8005D580A005E5809005F580D0060580C000D
:1035B80061580B0062580D006358070064581700E3
:1035C800655814006658180067581800685816009F
:1035D800695812006A581B006B581A006C5816007C
:1035E8006D5816006E5818006F581F0070581C0050
:1035F800715816007258100073580F007458130051
:1036080075581C0076581E00775817007858110016
:10361800795811007A5814007B581E007C581C00F9
:103628007D581C007E581A007F581A0080581B00CD
:1036380081581F008258140083581A0084581D00AE
:1036480085581E0086581A0087581A008051FF00B6
:103658008151520082511100835114008451250078
:103668008551240086511400875114008851140094
:10367800895169008A5160008B51A2008C519C00CD
:103688008D5136008E5134008F51540090514C00AA
:103698009151F80092510400935170009451F00038
:1036A8009551F0009651030097510100985105007B
:1036B80099512F009A5104009B5100009C5106001B
:1036C8009D51A0009E51A0008A5200008B5201001B
:1036D8008C5204008D5208008E5210008F52200028
:1036E8009052300092520000935200009452000011
:1036F800955201009652000097520400985200001B
:10370800995208009A5200009B5210009C520000E7
:103718009D5220009E5200009F52300082520000AD
:1037280000530000015320000253000003537C00A3
:103738000C5300000D5310000E5320000F5380004F
:1037480010532000115380000853200009534000F3
:10375800045300000553300006530000075380004F
:103768001453080015532000195330001653100045
:1037780017530000185302008053010081530000C2
:103788008253000083531F008453000085530600B2
:103798008653000087530000885300008953E100D6
:1037A8008A5300008B532B008C5300008D5300006C
:1037B8008E5300008F531000905300009153B300B4
:1037C800925300009353A6009453080080540C00B1
:1037D8008154180082542F00835455008454640087
:1037E8008554710086547D00875487008854910061
:1037F80089549A008A54AA008B54B8008C54CD007E
:103808008D54DD008E54EA008F541D00905405003D
:1038180091540000925404009354200094540300DF
:1038280095546000965402009754B80098540200CA
:10383800995486009A5402009B545B009C540200E1
:103848009D543B009E5402009F541C00A05402004B
:10385800A1540400A2540100A354ED00A454010093
:10386800A554C500A6540100A754A500A8540100FA
:10387800A9546C00AA540100AB544100AC54010097
:10388800AD542000AE540000AF541600B0540100EF
:10389800B1542000B2540000B3541000B4540000D6
:1038A800B554F000B6540000B754DF0002543F008E
:1038B800035400000055100002550000035506008F
:1038C8000455000005557F00255080000F3A300050
:1038D800103A28001B3A30001E3A2800113A6100BD
:1038E8001F3A10008856FD008956DF008A56FE00F0
:1038F8008B56EF008C56FE008D56EF008E56AA00B0
:103908008F56AA00FFFFFF0064656661756C74201E
:10391800004D5342004C5342003C53504953657488
:1039280074696E67732064656661756C743E003CEB
:1039380053504953657474696E6773202573256CF9
:1039480075202573204D4F444525643E00000038FE
:1039580001000138B0000238000003380A000438BA
:103968000A0005382000063807000738980008388C
:103978000800093800000A3806000B3800000C3827
:103988000C000D3880000E3807000F38D0001038B2
:10399800C200153844001838A80024380100273818
:1039A8000A00003A78000D3A10000E3A0D00003A6D
:1039B80078000B4635001D4700001C475000825612
:1039C8000A008356200086560700875698009B58A1
:1039D80000009A58C0009B5800009A58C000023056
:1039E8000C0002300000004332000B463500023064
:1039F8000C000230000013470200004680002147F7
:103A080002001C474000084400000C4622001538FC
:103A180004001838C8001F5000000250E0000A4493
:103A28000100024490001138F0001838A80021362F
:103A38001000FFFFFF00003801000138A80002381D
:103A4800000003380A0004380A0005382000063848
:103A580007000738980008380200093880000A383B
:103A680001000B38E0000C380C000D3880000E38CF
:103A780007000F38D00001507F00805600008156A3
:103A8800000082560A00835620008456000085569E
:103A9800000086560700875698000138B000FFFFDF
:103AA800FF00003801000138B00002380000033878
:103AB8000A0004380A0005382000063807000738CD
:103AC800980008380500093800000A3803000B3848
:103AD800C0000C380C000D3880000E3807000F3875
:103AE800D00001507F0080560000815600008256A9
:103AF8000A0083562000845600008556000086562A
:103B0800070087569800FFFFFF00003801000138C2
:103B1800B0000238000003380A0004380A000538EB
:103B280020000638070007389800083804000938CC
:103B380000000A3803000B3800000C380C000D3860
:103B480080000E3807000F38D00001507F008056E3
:103B580000008156000082560A00835620008456D1
:103B68000000855600008656070087569800FFFF1C
:103B7800FF00003801000138A800023800000338AF
:103B88000A0004380A0005382000063807000738FC
:103B9800980008380100093840000A3800000B383E
:103BA800F0000C380C000D3880000E3807000F3874
:103BB800D00001507F0080560000815600008256D8
:103BC8000A00835620008456000085560000865659
:103BD8000700875698000138B000FFFFFF0000007B
:103BE800000000000000000019100A081B100A0855
:103BF80000081018202830380000000000000000DD
:103C080085120A088B120A08A3160A0899120A08CC
:103C180087120A08000000000000000021010A08BD
:103C280039010A0841120A085B120A08A1130A0896
:103C38000B130A08DD120A0883120A084D140A0831
:103C4800BD160A083F130A0819140A089B150A0822
:103C5800ED150A086B120A085F150A08BD120A0852
:103C6800776972696E6700544350436C69656E7476
:103C780020736F636B65743D25780066006C6E0079
:103C8800666E00636F64650064657461696C000D3D
:103C98000A00253031307520005D20002C200028D6
:103CA800293A2000205B00636F6465203D200025D1
:103CB800690064657461696C73203D2000626175F8
:103CC800640053657269616C0055534253657269AB
:103CD800616C31007479706500706172616D0063A8
:103CE8006D6400696400686E64007374726D0066C8
:103CF800696C74006C766C0061646448616E646C15
:103D080065720072656D6F766548616E646C657288
:103D180000656E756D48616E646C657273004A5318
:103D28004F4E53747265616D4C6F6748616E646C79
:103D3800657200617070006E6F6E65007472616309
:103D48006500696E666F007761726E006572726FEA
:103D5800720070616E696300616C6C005A00252BFB
:103D68003033643A253032750025592D256D2D25BF
:103D7800645425483A254D3A2553257A00617363E2
:103D880074696D650000000000000000000000007C
:103D9800311C0A08371C0A084F1C0A08451C0A0867
:103DA800331C0A08000000000000000059210A081E
:103DB80049210A084B210A08000000000000000001
:103DC80015220A0865220A0873220A0805190A0832
:103DD80051220A0817220A082D220A085F220A0817
:103DE80043220A0811220A0800000000000000000F
:103DF8007D230A08CD230A08DB230A0805190A08C7
:103E080091230A08B3230A089F230A08C7230A082C
:103E18007F230A0883230A0800000000000000002E
:103E2800DD240A0827250A08FF240A08DF240A08CF
:103E380007250A080F250A0817250A081F250A0852
:103E4800000000000000000043260A0839260A087E
:103E58002F260A08AD250A085B1A0A0823260A082D
:103E680017260A080F260A0805260A08FB250A0845
:103E7800B7250A08000000000000000061260A08B3
:103E88006B260A0875260A087F260A0889260A0862
:103E980095260A08A1260A08AD260A08B5260A08A2
:103EA800BF260A08C9260A08000000000000000012
:103EB80000000000000000000000000000000000FA
:103EC80000000000000000000000000000000000EA
:103ED80000000000000000000000000000000000DA
:103EE80000000000000000000000000000000000CA
:103EF80000000000000000000000000000000000BA
:103F080000000000000000004300000055060A08F9
:103F18009D060A08A1060A08A5060A08A9060A08AD
:103F28001D0B0A0881110A08751A0A08851A0A0859
:103F3800DD1A0A084D260A0831270A08B1270A0897
:103F4800F5270A0879280A08FD280A08C1290A0855
:083F5800852A0A0800000000A0
:043F6000000000005D
:103F6400853D0A0800000000B03E0A08D03E0A0859
:103F7400F03E0A08000000000000000000000000FD
:103F840000000000103F0A080000000000000000CC
:103F9400000000000000000000000000000000001D
:103FA400000000000000000000000000000000000D
:103FB40000000000000000000000000000000000FD
:083FC4000000000004030020CE
:103FCC00FFFFFFFF00000102030405060708090AB2
:103FDC000B0C0D0E0F101112131415161718191AAD
:083FEC001B1C1D1E1F202800F4
:043FF40078563412B5
:04000005080A0018CD
:00000001FF
