:02000004080AE8
:1000000000000A0804150A080000060006000501A1
:080010000402BD040000000021
:1000180074110A0809480A4908B5884205D0094AEE
:10002800824202D0121A01F05DF80748074A0021FF
:10003800121A01F062F8064808BD00BF000300204C
:1000480074140A086803002068030020F4080020DC
:10005800F408002070B500F013FE074B074C1E464D
:10006800E41AA4080025A54204D056F8253098477C
:100078000135F8E770BD00BF3C140A0870140A087F
:1000880000F058B808B500F089F8BDE8084000F05D
:10009800B9BD00F00DBA0078B0FA80F04009704799
:1000A80001230370704708B50121002000F049FEC4
:1000B8004FF47A7000F004FABDE8084000210846C1
:1000C80000F03FBE08B50121084600F03AFE4FF4A3
:1000D8007A7000F0F5F9BDE808400021012000F031
:1000E80030BE08B50121022000F02BFE4FF47A70D3
:1000F80000F0E6F9BDE808400021022000F021BE2A
:1001080008B50121032000F01CFE4FF47A7000F0BE
:10011800D7F9BDE808400021032000F012BE07B55A
:100128000023019300931A4600F05AF903B05DF8D2
:1001380004FB000008B50121002000F0F1FD0121B9
:10014800084600F0EDFD0121022000F0E9FD012143
:10015800032000F0E5FD09490948FFF7E0FF0949D8
:100168000948FFF7DCFF09490948FFF7D8FFBDE850
:10017800084008490848FFF7D2BF00BFAF000A0887
:1001880088110A08CD000A0893110A08EB000A082A
:100198009D110A0809010A08A7110A08704700F00A
:1001A80019B8000008B5024B1B681B6B019308BD0A
:1001B800D001060808B5024B1B685B68019308BDAF
:1001C8009C01060808B5024B1B685B69019308BDD2
:1001D8009C01060808B5024B1B681B68019308BD03
:1001E800B001060808B5024B1B689B68019308BD5F
:1001F800B001060808B5024B1B68DB68019308BD0F
:10020800B001060808B5024B1B681B69019308BDBD
:10021800B001060808B5024B1B681B6E019308BDA8
:10022800AC01060808B5024B1B685B6E019308BD5C
:10023800AC01060808B5024B1B689B6E019308BD0C
:10024800AC01060808B5024B1B68DB6E019308BDBC
:10025800AC01060808B5024B1B681B6F019308BD6B
:10026800AC01060808B5024B1B685B6F019308BD1B
:10027800AC01060808B5034B1B68D3F8803001931E
:1002880008BD0000AC01060808B5024B1B68DB6915
:10029800019308BDB401060808B5024B1B681B6A28
:1002A800019308BDB401060808B5024B1B689B6999
:1002B800019308BDC401060808B5024B1B685B6AB8
:1002C800019308BDC401060808B5024B1B689B6A68
:1002D800019308BDC401060808B5024B1B68DB6A18
:1002E800019308BDC401060808B5024B1B681B6BC7
:1002F800019308BDC401060808B5024B1B685B6B77
:10030800019308BDC401060808B5024B1B689B6B26
:10031800019308BDC401060808B5024B1B681B6C95
:10032800019308BDC401060808B5024B1B681B6889
:10033800019308BDD801060808B5024B1B681B6964
:10034800019308BDD801060808B5024B1B685B6914
:10035800019308BDD801060808B5024B1B689B69C4
:10036800019308BDD801060808B5024B1B68DB6974
:10037800019308BDD801060808B5024B1B681B6A23
:10038800019308BDD801060808B5024B1B689B6C91
:10039800019308BDC001060808B5024B1B685B68DD
:1003A800019308BDA401060808B5024B1B685B69E8
:1003B800019308BDA401060808B5034B1B68D3F8D0
:1003C8009030019308BD0000A401060808B5034B4E
:1003D8001B68D3F89C30019308BD0000A4010608EF
:1003E80008B5024B1B685B6A019308BDCC0106087F
:1003F80008B5024B1B68DB6B019308BDCC010608EE
:1004080008B5024B1B685B68019308BDC801060864
:1004180008B5024B1B689B68019308BDC801060814
:1004280008B5024B1B68DB68019308BDC8010608C4
:1004380008B5024B1B681B69019308BDC801060873
:1004480008B5024B1B685B69019308BDC801060823
:1004580008B5024B1B689B69019308BDC8010608D3
:1004680008B5024B1B68DB69019308BDC801060883
:1004780008B5024B1B681B6A019308BDC801060832
:1004880008B5024B1B681B6B019308BDC801060821
:1004980008B5024B1B685B6B019308BDC8010608D1
:1004A80008B5024B1B681B68019308BDA00106082C
:1004B80008B5024B1B685B68019308BDA0010608DC
:1004C8000021FFF771BF10B58368044613B10322FA
:1004D80001469847204610BD7047F8B506461546B0
:1004E8000C468F18BC4206D0336814F8011B9B6871
:1004F80030469847F6E72846F8BD0022007CFFF70B
:1005080089BE0021007CFFF78DBE0021007CFFF72B
:1005180091BE0021007CFFF795BE0021007CFFF70B
:1005280099BE10B50446142100F083FC204610BD86
:1005380010B5044608464FF47A73A360044B0021B3
:10054800207461602360FFF795FE204610BD00BF50
:10055800BC110A080021007CFFF784BE704710B563
:100568000446182100F065FC204610BDF8B50F467A
:1005780000F10806051D002416F8011D0A22384658
:1005880000F011F9AE42044407D0002CF4D02E211B
:10059800384600F0DBF80444EEE72046F8BD0000DA
:1005A80010B50446044B112240F8043B002100F02A
:1005B800A4FD204610BD00BFE4110A080346074AFF
:1005C80010B543F8042B01F1100251F8044B914285
:1005D80043F8044BF9D10A781A7010BDE4110A08DF
:1005E800024A41600260042202757047E4110A0859
:1005F80010B59DF8084044EA032343EA024242EA60
:10060800016104234160037510BD000037B5044D36
:1006180005609DF818500095FFF7EAFF03B030BD5C
:10062800E4110A08014A024B1A607047AB120A0823
:100638006C03002000231A464068FFF7E1BE002241
:1006480002214068FFF7ECBE002211464068FFF720
:10065800DFBE002211464068FFF7EABE00231A46B3
:1006680019464068FFF7ECBE00231A461946406851
:10067800FFF7EEBE002281F001014068FFF7F0BEEF
:1006880000224068FFF7FCBE002211464068FFF7D1
:10069800FFBE002211464068FFF7EABE70B5164655
:1006A8008EB0044608A8FFF77BFF1122002103A89B
:1006B80000F023FD304600F051FD00250A4B00955F
:1006C80081B25B6803AA3046FFF75EFE20B1294677
:1006D8002046FFF785FF03E003A92046FFF76EFFDA
:1006E80020460EB070BD00BFF0070020024B034A41
:1006F8001A6000225A60704770030020DC120A0852
:10070800F8B506460D468F180024BD420CD0336854
:1007180015F8011B9B6830469847002801DB044404
:10072800F3E7002C08BF04462046F8BD70B505461F
:100738000C46084649B100F011FD2B6802462146D7
:100748002846BDE87040DB68184770BD03689B68A1
:100758001847012A98BF0A2230B50B468BB00021F2
:100768008DF824100DF12304B3FBF2F505FB1233C9
:10077800DBB2092B94BF30333733DBB2214604F8A0
:1007880001392B46002DEFD1FFF7D0FF0BB030BD5C
:1007980010B422B90368C9B29B6810BC1847D2B21A
:1007A80010BCFFF7D6BFFFF7F3BF10B50446FFF73D
:1007B8008AFE204610BD0000034800238360034AD8
:1007C800034900F031BB00BF780300206803002014
:1007D800B3070A08704710B50446102100F029FB3A
:1007E800204610BD70B504460E46074B0025036031
:1007F80040F80C5FFFF7D6FC30462671FFF744FD42
:10080800A560204670BD00BF10130A080079FFF7E5
:1008180043BD00004FF6FF72034B0020187058804C
:100828009A80FFF7B9BD00BF88030020024B1A6801
:10083800024B1A60704700BF00030020900300209D
:1008480070474174704708B5007CFFF765FD20EAE2
:10085800E07008BD08B5007CFFF736FD20EAE070BF
:1008680008BD08B5007CFFF73FFD30EA200028BF2F
:100878004FF0FF3008BD08B5007CFFF72DFD30EACA
:10088800200028BF4FF0FF3008BD007CFFF734BDC3
:1008980010B50446142100F0CCFA204610BD70B5FE
:1008A800457C04460E4625B9007CFFF735FD002837
:1008B80005DD3146207CBDE87040FFF7FDBC2846C9
:1008C80070BD000010B5044608461146002262605B
:1008D8004FF47A72A260054A207422600122627481
:1008E8001A46FFF7E1FC204610BD00BF4C130A086A
:1008F800007CFFF709BD000038B50C4D296811F0E0
:10090800010411D12846FFF7C6FB68B1084A214601
:10091800084B0948FFF7D6FF2846FFF7C1FB074AEF
:100928000749054800F080FA034838BD2C04002028
:1009380030040020A803002094030020680300204E
:1009480049080A0841747047704708B50021007CBF
:10095800FFF702FD30EA200028BF4FF0FF3008BD46
:1009680008B50121007CFFF7F7FC30EA200028BF1A
:100978004FF0FF3008BD08B5007CFFF7E5FC20EA22
:10098800E07008BD08B5007CFFF7D6FC20EAE070EF
:1009980008BD007CFFF7F0BC10B50446142100F038
:1009A80048FA204610BD38B50446007C0D46FFF7CE
:1009B800CBFC002801DC607C28B12946207CFFF7AD
:1009C800D3FC20EAE07038BD10B50446002363600C
:1009D8004FF47A73A360054B084623600123217402
:1009E80063741146FFF7A0FC204610BD7C130A086B
:1009F80010B504461422002100F07FFB054B204669
:100A08006360054BE36040F2011323818123238255
:100A180010BD00BF39050020B804002030B50E4DC8
:100A280087B001A8FFF7E4FF296811F0010410D18D
:100A38002846FFF730FB60B101AA21460748FFF7B7
:100A4800C3FF2846FFF72CFB054A0649034800F078
:100A5800EBF9024807B030BDB40400203C06002082
:100A68006803002051090A0810B504461422002121
:100A780000F043FB054B20466360054BE36040F202
:100A8800011323818123238210BD00BFEC060020BF
:100A98005406002010B50E4C86B001A8FFF7E4FFFD
:100AA8002368DB0710D42046FFF7F5FA60B101AAE6
:100AB80001210848FFF788FF2046FFF7F1FA064AA8
:100AC8000649044800F0B0F9024806B010BD00BF5E
:100AD80050060020D80600206803002051090A08A3
:100AE800002211464068FFF7A3BCF0B5164689B04E
:100AF80011220F460446002103A800F0FEFA3046F2
:100B080000F02CFB0025009581B27B6803AA3046D3
:100B1800FFF73AFC20B129462046FFF761FD03E0C4
:100B280003A92046FFF74AFD204609B0F0BD002280
:100B380011464068FFF79CBC002211464068FFF749
:100B4800A7BC00224068FFF79BBC002281F001018E
:100B58004068FFF785BC00231A4619464068FFF72E
:100B680077BC00231A4619464068FFF769BC002283
:100B780011464068FFF74CBC002202214068FFF78D
:100B88004FBC00231A464068FFF73ABC024B0422C8
:100B98005A60024A1A607047F0070020AC130A082E
:100BA80008B5144B33B1FFF739FF03681B69984741
:100BB800002816DC104B33B1FFF79EFE03681B6953
:100BC8009847002810DC0D4B0BB1AFF300800C4B9D
:100BD8007BB1FFF75FFF03681B699847002806DCB5
:100BE80008BDAFF30080E5E7AFF30080EBE7AFF3B4
:100BF800008008BD000000000000000000000000A8
:100C08000000000008B5FFF7CBFFFFF7DBFA014B48
:100C1800186008BD000800200248034A0349121A58
:100C280000F060BA004002400440024070140A0814
:100C380007B5002300931A466FF07701FFF7C6FB4C
:100C480003B05DF804FB000007B543880A2B08D001
:100C5800502B09D1094B1B683BB103B05DF804EB7D
:100C68001847FFF7E5FF06E0002300931A466FF0E8
:100C78007701FFF7ABFB03B05DF804FBF807002032
:100C880038B5104C104D2368AB42104B0CBF0122F5
:100C980000221A7002D0FFF7BFFF2560FFF78AFA1B
:100CA800044600F033FA0A4B13B12046AFF3008034
:100CB80000210748FFF79CFBBDE8384000210548A4
:100CC800FFF77ABB004002401E1C279AFC07002051
:100CD80000000000510C0A0810B504460F48FFF741
:100CE80095FD28B1A4F10D03022B01D8002010BDF9
:100CF80000F040F8FFF72EFC08B1012CF6D9FFF7F9
:100D0800FBFDFFF7F5FD18B1A4F11203012BEDD996
:100D1800172C8CBF0020012010BD00BF3408002014
:100D2800172838B504460D460AD8FF2908D0FFF71A
:100D3800D3FF28B129462046BDE83840FFF752BA0C
:100D480038BD38B504460D46FFF754FAFF2810D0D1
:100D5800062804D84D2323FA00F0C30709D42046F7
:100D6800FFF7BAFF28B129462046BDE83840FFF70B
:100D780049BA38BD38B50B4D296811F001040FD1B7
:100D88002846FFF788F958B121460748FFF7D0FBF6
:100D98002846FFF785F9054A0549034800F044F855
:100DA800014838BD04080020080800206803002016
:100DB800E1040A0813B5084C00231A4619460093A3
:100DC8002046FFF723FC2046044A054902B0BDE847
:100DD800104000F029B800BF1C080020680300205C
:100DE80065050A0870B50C4C0C4E0D4D00212046C7
:100DF800FFF7F8FC20460B4C3246294600F014F861
:100E080001212046FFF7EEFC324629462046BDE880
:100E1800704000F009B800BF3408002068030020C3
:100E2800DD070A08440800200B460146184600F072
:100E38004BB9FFF72EB90000244B1A68D0075CBFE6
:100E480001221A60224B1A68D1075CBF01221A607E
:100E5800204B1A68D2075CBF01221A601E4B1A6821
:100E6800D0075CBF01221A601C4B1A68D1075CBF0F
:100E780001221A601A4B1A68D2075CBF01221A6055
:100E8800184B1A68D0075CBF01221A60164B1A6803
:100E9800D1075CBF01221A60144B1A68D2075CBFE5
:100EA80001221A60124B1A68D0075CBF01221A602F
:100EB800104B1A68D1075CBF01221A600E4B1A68E2
:100EC800D2075CBF01221A60704700BF800800206B
:100ED8007C08002078080020740800207008002092
:100EE8006C080020680800206408002060080020C2
:100EF8005C0800205808002054080020184B1A6885
:100F0800D1075CBF01221A60164B1A68D2075CBF72
:100F180001221A60144B1A68D0075CBF01221A60BC
:100F2800124B1A68D1075CBF01221A60104B1A686D
:100F3800D2075CBF01221A600E4B1A68D0075CBF4B
:100F480001221A600C4B1A68D1075CBF01221A6093
:100F58000A4B1A68D2075CBF01221A60704700BFAB
:100F6800A00800209C080020980800209408002071
:100F7800900800208C0800208808002084080020A1
:100F8800184B1A68D1075CBF01221A60164B1A6801
:100F9800D2075CBF01221A60144B1A68D0075CBFE5
:100FA80001221A60124B1A68D1075CBF01221A602D
:100FB800104B1A68D2075CBF01221A600E4B1A68E0
:100FC800D0075CBF01221A600C4B1A68D1075CBFBE
:100FD80001221A600A4B1A68D2075CBF01221A6004
:100FE800704700BFC0080020BC080020B8080020D7
:100FF800B4080020B0080020AC080020A808002091
:10100800A4080020244B1A68D0075CBF01221A608C
:10101800224B1A68D1075CBF01221A60204B1A685C
:10102800D2075CBF01221A601E4B1A68D0075CBF4A
:1010380001221A601C4B1A68D1075CBF01221A6092
:101048001A4B1A68D2075CBF01221A60184B1A683B
:10105800D0075CBF01221A60164B1A68D1075CBF23
:1010680001221A60144B1A68D2075CBF01221A6069
:10107800124B1A68D0075CBF01221A60104B1A681D
:10108800D1075CBF01221A600E4B1A68D2075CBFF9
:1010980001221A60704700BFF0080020EC08002009
:1010A800E8080020E4080020E0080020DC08002010
:1010B800D8080020D4080020D0080020CC08002040
:1010C800C8080020C408002010B5054C13462CB1F0
:1010D8000A4601460220AFF3008010BD204610BD2D
:1010E8000000000010B5431E0A44914204D011F8D4
:1010F800014B03F8014FF8E710BD03460244934241
:1011080002D003F8011BFAE77047000038B5124B0C
:1011180005461C68A36BD3B91820FFF7C1F943F241
:101128000E33A06303804AF6CD33438041F2342363
:1011380083804EF26D63C3804DF6EC630381052313
:1011480043810B23838101220023C0E90423A36B7D
:1011580000221D615A6138BD64030020034613F85C
:10116800012B002AFBD1181A013870471D000A0804
:101178005D000A0889000A088D000A0800000000BE
:10118800647269766546726F6E740064726976651A
:101198004261636B0073746565724C6566740073B5
:1011A8007465657252696768740000000000000089
:1011B80000000000E1040A082B050A0803050A08D4
:1011C800E3040A080B050A0813050A081B050A08A0
:1011D80023050A08000000000000000075050A0841
:1011E80065050A0867050A0866006C6E00666E00E9
:1011F800636F64650064657461696C000D0A00259D
:101208003031307520005D20002564002C20002836
:10121800293A2000205B00636F6465203D2000258B
:10122800690064657461696C73203D2000626175B2
:10123800640053657269616C005553425365726965
:10124800616C31007479706500706172616D006362
:101258006D6400696400686E64007374726D006682
:10126800696C74006C766C0061646448616E646CCF
:1012780065720072656D6F766548616E646C657243
:1012880000656E756D48616E646C657273004A53D3
:101298004F4E53747265616D4C6F6748616E646C34
:1012A800657200617070006E6F6E650074726163C4
:1012B8006500696E666F007761726E006572726FA5
:1012C800720070616E696300616C6C000000000060
:1012D800000000003D060A0847060A0851060A08E9
:1012E8005B060A0865060A0871060A087D060A08E8
:1012F80089060A0891060A089B060A08A5060A082C
:101308000000000000000000DD070A08DF070A08E7
:101318005A00252B3033643A253032750025592D73
:10132800256D2D25645425483A254D3A2553257AAF
:101338000061736374696D650000000000000000BF
:101348000000000049080A0899080A08A7080A08BE
:1013580009070A085D080A087F080A086B080A08CE
:1013680093080A084B080A084F080A0800000000FA
:101378000000000051090A08A1090A08AF090A0873
:1013880009070A088D090A0853090A0869090A0899
:101398009B090A087F090A084D090A08000000008D
:1013A800000000008B0B0A08810B0A08770B0A085B
:1013B800E90A0A086B0B0A085F0B0A08530B0A08AC
:1013C8004B0B0A08410B0A08370B0A08F30A0A08EC
:1013D8000000000000000000000000000000000005
:1013E80000000000000000000000000000000000F5
:1013F80000000000000000000000000000000000E5
:1014080000000000000000000000000000000000D4
:1014180000000000000000000000000000000000C4
:1014280000000000000000000000000000000000B4
:1014380043000000A7010A082D060A08F5060A0855
:10144800C1070A081D080A0835080A08950B0A0882
:10145800BD0D0A08ED0D0A08410E0A08050F0A0815
:08146800890F0A080D100A08A3
:041470000000000078
:1014740039130A0800000000D8130A08F8130A08F0
:1014840018140A080000000000000000000000001A
:101494000000000038140A080000000000000000EA
:1014A4000000000000000000000000000000000038
:1014B4000000000000000000000000000000000028
:1014C4000000000000000000000000000000000018
:0814D4000000000004030020E9
:1014DC00FFFFFFFF00000102030405060708090ACD
:1014EC000B0C0D0E0F101112131415161718191AC8
:0814FC001B1C1D1E1F2028000F
:0415040078563412CF
:04000005080A0018CD
:00000001FF
